:0400000019EF00F004
:100008005F82F2A80AEF00F00CEF00F017EF00F0A3
:10001800F2A211EF00F013EF00F017EF00F0000E5E
:0E0028000001D36FF2925F9211003DEF1AF0CB
:100800000044697374616E6369613A200025303673
:100810002E30326600696E66006E616E0000000E5A
:100820000001816F57C082F058C083F059C084F036
:100830005AC085F085BF21EF04F01FEF04F035EFBB
:1008400004F0010E816F82C001F083C002F084C009
:1008500003F085C004F0EFEC19F001C082F002C093
:1008600083F003C084F004C085F0000E0001876FA0
:10087000000E866FCDC071F0CEC072F08151D8B439
:1008800044EF04F046EF04F05AEF04F08151D8A48D
:100890004CEF04F04EEF04F054EF04F0000E676FDD
:1008A0002B0E666F58EF04F0000E676F2D0E666F0B
:1008B00066C081F082C001F083C002F084C003F002
:1008C00085C004F04EEC16F001040210D8A46BEFC2
:1008D00004F06DEF04F0A0EF04F000018151D8B4F2
:1008E00074EF04F076EF04F07FEF04F081C000F1C4
:1008F0007107D8A07207000E876F010E866F000E79
:100900008625016E010E8721026E150E036E080EFC
:10091000046ECFEC19F00001FD0E7127FF0E72235B
:1009200055C011F056C012F0000E136E010E146E79
:1009300071C015F072C016F032EC17F040EF09F0FC
:1009400082C001F083C002F084C003F085C004F0CF
:100950004EEC16F001500210D8A4B1EF04F0B3EF42
:1009600004F0D3EF04F000018151D8B4BAEF04F0E1
:10097000BCEF04F0C5EF04F081C000F17107D8A00E
:100980007207000E876F010E866F000E8625016EBE
:10099000010E8721026E190E036E080E046ECFEC55
:1009A00019F08BEF04F0000E0001886F000E896FC4
:1009B000800E8A6F3F0E8B6F000E706F000E6F6F90
:1009C00082C001F083C002F084C003F085C004F04F
:1009D000000E056E000E066E000E076E000E086E0D
:1009E00087EC17F0D8B0F7EF04F0F9EF04F0D8EF88
:1009F00005F006EF05F073C088F074C089F075C08B
:100A00008AF076C08BF000016F4B702B88C00FF01E
:100A100089C010F08AC011F08BC012F0000E136E66
:100A2000000E146E200E156E410E166ED5EC0DF0F4
:100A30000FC073F010C074F011C075F012C076F0E2
:100A400000017351825D016E74518359026E7551BC
:100A50008459036E76518559046E59EC18F004BE22
:100A60003DEF05F004500310021009E1020E015C95
:100A7000D8A03DEF05F03FEF05F0FBEF04F073C0A9
:100A800028F074C029F075C02AF076C02BF082C01F
:100A90002CF083C02DF084C02EF085C02FF0CCEC5C
:100AA00015F0D8A056EF05F058EF05F0FBEF04F075
:100AB00000018851825D016E89518359026E8A510D
:100AC0008459036E8B518559046E59EC18F004BE9D
:100AD00077EF05F004500310021007E1020E015CED
:100AE000D8B075EF05F077EF05F0BFEF05F088C0DF
:100AF00082F089C083F08AC084F08BC085F0D8EF83
:100B000005F088C028F089C029F08AC02AF08BC07F
:100B10002BF0000E2C6E000E2D6E200E2E6E410E50
:100B20002F6EEAEC0FF028C088F029C089F02AC0A7
:100B30008AF02BC08BF000016F07D8A07007885196
:100B4000825D016E89518359026E8A518459036E08
:100B50008B518559046E59EC18F004BEBDEF05F0B9
:100B600004500310021007E1020E015CD8B0BBEF85
:100B700005F0BDEF05F0BFEF05F077EF05F082C09F
:100B800028F083C029F084C02AF085C02BF088C0EB
:100B90002CF089C02DF08AC02EF08BC02FF0CCEC49
:100BA00015F0D8A0D6EF05F0D8EF05F081EF05F0ED
:100BB0005BC069F069C06AF00001D0BFE2EF05F0E8
:100BC000E4EF05F0EAEF05F0CFC062F0D0C063F0CB
:100BD000EEEF05F0000E636F060E626F62C06DF0FF
:100BE00063C06EF06D4B6E2B660E6A19D8A4FBEFD6
:100BF00005F0FDEF05F01DEF06F070BF04EF06F005
:100C000002EF06F010EF06F0000E886F000E896FFD
:100C1000800E8A6F3F0E8B6F000E706F000E6F6F2D
:100C2000670E6919D8B417EF06F019EF06F01DEF3B
:100C300006F06F516D2770516E23000E806F000E0D
:100C40007F6F82C077F083C078F084C079F085C070
:100C50007AF088C073F089C074F08AC075F08BC0D8
:100C600076F0AEEF06F077C028F078C029F079C0B2
:100C70002AF07AC02BF088C02CF089C02DF08AC0F1
:100C80002EF08BC02FF0EAEC0FF028C041F029C005
:100C900042F02AC043F02BC044F0C1EC12F041C036
:100CA0007BF042C07CF043C07DF044C07EF07BC04E
:100CB00001F07CC002F07DC003F07EC004F049EC7E
:100CC00015F001C06BF002C06CF077C028F078C05E
:100CD00029F079C02AF07AC02BF07BC013F07CC0D9
:100CE00014F07DC015F07EC016F088C00FF089C0EA
:100CF00010F08AC011F08BC012F0D5EC0DF00FC0CF
:100D00002CF010C02DF011C02EF012C02FF067ECA7
:100D100019F028C077F029C078F02AC079F02BC0EC
:100D20007AF088C028F089C029F08AC02AF08BC0E8
:100D30002BF0000E2C6E000E2D6E200E2E6E410E2E
:100D40002F6EEAEC0FF028C088F029C089F02AC085
:100D50008AF02BC08BF000017F4B802B6D517F5DA3
:100D60008051800A5C6E6E51800A5C58D8A0BBEF3F
:100D700006F0BDEF06F033EF06F088C00FF089C033
:100D800010F08AC011F08BC012F0000E136E000E2E
:100D9000146EA00E156E400E166ED5EC0DF00FC041
:100DA0007BF010C07CF011C07DF012C07EF077C0E7
:100DB00028F078C029F079C02AF07AC02BF07BC0E7
:100DC0002CF07CC02DF07DC02EF07EC02FF0CCEC3E
:100DD00015F0D8B0EEEF06F0F0EF06F0FBEF06F0FE
:100DE000000E00017B6F000E7C6F000E7D6F000E09
:100DF0007E6F24EF07F077C001F078C002F079C071
:100E000003F07AC004F07BC005F07CC006F07DC022
:100E100007F07EC008F087EC17F0D8A012EF07F0BB
:100E200014EF07F024EF07F000016BB11AEF07F0A1
:100E30001CEF07F024EF07F0000E7B6F000E7C6FB5
:100E4000000E7D6F000E7E6F82C001F083C002F045
:100E500084C003F085C004F07BC005F07CC006F0C0
:100E60007DC007F07EC008F041EC09F001C077F0CA
:100E700002C078F003C079F004C07AF077C028F09F
:100E800078C029F079C02AF07AC02BF0000E136EDA
:100E9000000E146E200E156E410E166E73C00FF00C
:100EA00074C010F075C011F076C012F0D5EC0DF0E2
:100EB0000FC02CF010C02DF011C02EF012C02FF07A
:100EC000CCEC15F0D8A067EF07F069EF07F092EFD0
:100ED00007F000016F4B702B73C00FF074C010F05F
:100EE00075C011F076C012F0000E136E000E146E75
:100EF000200E156E410E166ED5EC0DF00FC073F07E
:100F000010C074F011C075F012C076F0660E0001CA
:100F10006A19D8A48EEF07F090EF07F092EF07F070
:100F20006D4B6E2B73C088F074C089F075C08AF069
:100F300076C08BF06FC060F070C061F0000E0001F1
:100F4000686F000E656F000E646F000E806F000EFC
:100F50007F6F90EF08F077C028F078C029F079C053
:100F60002AF07AC02BF088C02CF089C02DF08AC0FE
:100F70002EF08BC02FF0EAEC0FF028C041F029C012
:100F800042F02AC043F02BC044F0C1EC12F041C043
:100F90007BF042C07CF043C07DF044C07EF07BC05B
:100FA00001F07CC002F07DC003F07EC004F049EC8B
:100FB00015F002BEE7EF07F0025007E10A0E015CF0
:100FC000D8B0E5EF07F0E7EF07F0F7EF07F07BC0E9
:100FD00001F07CC002F07DC003F07EC004F049EC5B
:100FE00015F001C06BF002C06CF0FCEF07F0000ED2
:100FF00000016C6F090E6B6F00016851D8A403EFFC
:1010000008F005EF08F02DEF08F061BF0CEF08F0D5
:101010000AEF08F02DEF08F0000E8625D96E010EBC
:101020008721DA6E2E0EDF6E864B872B7107D8A0D4
:101030007207010E686F2DEF08F0000E8625D96E3D
:10104000010E8721DA6E300EDF6E864B872B71071B
:10105000D8A072076407D8A0650764516511D8A4A9
:1010600034EF08F036EF08F01DEF08F0000E86258B
:10107000D96E010E8721DA6E6B51300FDF6E864B11
:10108000872B7107D8A0720777C028F078C029F0A5
:1010900079C02AF07AC02BF07BC013F07CC014F02A
:1010A0007DC015F07EC016F088C00FF089C010F02A
:1010B0008AC011F08BC012F0D5EC0DF00FC02CF0EF
:1010C00010C02DF011C02EF012C02FF067EC19F0F7
:1010D00028C077F029C078F02AC079F02BC07AF0C8
:1010E00088C028F089C029F08AC02AF08BC02BF074
:1010F000000E2C6E000E2D6E200E2E6E410E2F6EE9
:10110000EAEC0FF028C088F029C089F02AC08AF0E4
:101110002BC08BF000016007D8A061077F4B802BAC
:101120006D517F5D8051800A5C6E6E51800A5C5803
:10113000D8B09DEF08F09FEF08F0ADEF08F087BF43
:10114000ABEF08F0875109E14B0E865DD8A0ABEFFD
:1011500008F0ADEF08F0ABEF07F0000E806F4F0E18
:101160007F6F000E7F25D96E010E8021DA6E000E92
:10117000DF6E000E5C6E010E5D6E86515C5E875107
:101180005D5A7F515C24016E80515D20026E000E1D
:10119000036E010E046E86C005F087C006F03FECBA
:1011A00019F0000186517F5D866F87518059876FE6
:1011B0008151D8A4DEEF08F0E1EF08F0010EE2EF74
:1011C00008F0000E7F6F806B5EA2E9EF08F0EBEF96
:1011D00008F019EF09F0FBEF08F08607D8A08707A1
:1011E000000E8625D96E010E8721DA6E300EDF6E75
:1011F0007107D8A0720771517F5D8051800A5C6EC3
:101200007251800A5C58D8B008EF09F00AEF09F073
:1012100019EF09F086517F5D8051800A5C6E87511D
:10122000800A5C58D8A017EF09F019EF09F0EDEF2C
:1012300008F08151D8B41FEF09F021EF09F02CEF2D
:1012400009F08607D8A08707000E8625D96E010E03
:101250008721DA6E81C0DFFF7F51715F8051725B41
:1012600055C011F056C012F0000E8625136E010E07
:101270008721146E71C015F072C016F032EC17F0B1
:1012800012000450800B0D6E045004240F6E03AE48
:101290004CEF09F04EEF09F04FEF09F00F800F50BF
:1012A000D8B455EF09F057EF09F06CEF09F00F28AB
:1012B000D8A45DEF09F05FEF09F067EF09F0000EC9
:1012C000016E000E026E000E036E000E046E038EA1
:1012D000000E046E74EF09F0000E016E000E026E37
:1012E000000E036E000E046E0850800B0E6E0D5043
:1012F0000E18D8B47EEF09F080EF09F081EF09F005
:101300000D8C085008240E6E07AE89EF09F08BEFA4
:1013100009F08CEF09F00E800E50D8B492EF09F06E
:1013200094EF09F0A9EF09F00E28D8A49AEF09F07C
:101330009CEF09F0A4EF09F0000E056E000E066E9A
:10134000000E076E000E086E078E000E086EB1EFDD
:1013500009F0000E056E000E066E000E076E000E00
:10136000086E0F500E5CD8B0B8EF09F0BAEF09F074
:10137000E1EF09F00DACBFEF09F0C1EF09F0C3EFE9
:1013800009F0800E0D1A0FC010F00EC00FF010C043
:101390000EF001C010F005C001F010C005F002C051
:1013A00010F006C002F010C006F003C010F007C035
:1013B00003F010C007F004C010F008C004F010C023
:1013C00008F0000E106E0F500EC009F00A6A095E98
:1013D000000E0A5A0ABEF6EF09F00A5009E11A0E89
:1013E000095CD8A0F6EF09F0F8EF09F02FEF0AF04A
:1013F0000150021003100410D8A401EF0AF004EF0A
:101400000AF0010E05EF0AF0000E106E000E016EDC
:10141000000E026E000E036E000E046E0EC00FF082
:1014200038EF0AF010A017EF0AF019EF0AF01FEFDB
:101430000AF0D89010300109106E21EF0AF0D89010
:10144000103201A026EF0AF028EF0AF029EF0AF087
:10145000108E043404320332023201320F2A0E504D
:101460000F5CD8A036EF0AF038EF0AF012EF0AF05E
:101470000DBC3DEF0AF03FEF0AF07FEF0AF00F508E
:10148000D8A445EF0AF047EF0AF051EF0AF0000E3A
:10149000016E000E026E000E036E000E046EA0EFD1
:1014A0000BF0055001260650022207500322085077
:1014B000042204A05EEF0AF060EF0AF00CEF0BF0DC
:1014C00010A065EF0AF067EF0AF06DEF0AF0D89010
:1014D00010300109106E6FEF0AF0D890103201A0A1
:1014E00074EF0AF076EF0AF077EF0AF0108E04340A
:1014F00004320332023201320F2A0CEF0BF0055096
:10150000015C06500258075003580450800A096EC7
:101510000850800A0958D8B090EF0AF092EF0AF00C
:10152000BDEF0AF00150055C096E025006580A6EC4
:10153000035007580B6E045008580C6EFF0E092418
:10154000016EFF0E0A20026EFF0E0B20036EFF0ECF
:101550000C20046E800E0D1A106C1050D8A4B3EF3E
:101560000AF0B5EF0AF0C5EF0AF0010E0126000EF1
:10157000022203220422C5EF0AF00550015E065044
:10158000025A0750035A0850045A0150021003101F
:101590000410D8A4CEEF0AF0D0EF0AF005EF0BF05C
:1015A0001050D8A4D6EF0AF0D8EF0AF005EF0BF0F0
:1015B000000E016E000E026E000E036E000E046E31
:1015C000A0EF0BF0D890013602360336043610AE89
:1015D000ECEF0AF0EEEF0AF0EFEF0AF0018010A056
:1015E000F4EF0AF0F6EF0AF0FAEF0AF0D8801036BE
:1015F000FCEF0AF0D89010360F50D8B402EF0BF081
:1016000004EF0BF005EF0BF00F0603AE0AEF0BF043
:101610000CEF0BF0E2EF0AF0000E0E6E10AE13EFBF
:101620000BF015EF0BF02DEF0BF010C009F07F0E53
:101630000916D8B41EEF0BF020EF0BF024EF0BF0DF
:10164000010E0E6E2DEF0BF001A029EF0BF02BEF2A
:101650000BF02DEF0BF020EF0BF00E50D8B433EF62
:101660000BF035EF0BF060EF0BF0010E0126000ED2
:1016700002220322042204A040EF0BF042EF0BF001
:1016800060EF0BF001C009F002C00AF003C00BF0DC
:1016900004C00CF00C340C320B320A32093209C08F
:1016A00001F00AC002F00BC003F00CC004F00F28D8
:1016B000D8B45DEF0BF05FEF0BF060EF0BF00F2A8B
:1016C0000F28D8B466EF0BF068EF0BF070EF0BF05B
:1016D0000F50D8A46EEF0BF070EF0BF082EF0BF011
:1016E000000E016E000E026E000E036E000E046E00
:1016F0000F50D8A47EEF0BF080EF0BF082EF0BF0D1
:10170000000E0D6E0FA087EF0BF089EF0BF08CEF42
:101710000BF0038E8DEF0BF0039ED8900F30046E0C
:101720000DAE95EF0BF097EF0BF098EF0BF0048EEA
:1017300001C001F002C002F003C003F004C004F0D5
:1017400012008EC0D9FF8FC0DAFFDECFF6FFDDCFEB
:10175000F7FF0800F550250AD8A4B1EF0BF0B3EF5E
:101760000BF0C0EF0DF08EC0D9FF8FC0DAFFDE2A7C
:10177000000EDD22000E0001CE6F000ECD6FCDC039
:101780005EF0CF69D069000E9E6F000E9D6FF3EF83
:101790000BF05E828EC0D9FF8FC0DAFFDE2A000E0A
:1017A000DD22F3EF0BF0000E9E6F010E9D6FF3EF45
:1017B0000BF08EC0D9FF8FC0DAFFDECFF6FFDDCF92
:1017C000F7FF0800F550926F936B9351000AD8B45D
:1017D000ECEF0BF0D3EF0BF09251300AD8B4C9EF15
:1017E0000BF0D3EF0BF09D519E11D8B4FAEF0BF034
:1017F000FCEF0BF0D9EF0BF08EC0D9FF8FC0DAFFF2
:10180000DECFF6FFDDCFF7FF0800F5502A0AD8A497
:101810000CEF0CF00EEF0CF037EF0CF08EC0D9FF90
:101820008FC0DAFFDE2A000EDD2290C0D9FF91C002
:10183000DAFFDFCF92F0020EDE26DFCF93F0000E4C
:10184000DD2292C0D9FF93C0DAFFDECFCDF0DDCF2D
:10185000CEF0CEBF30EF0CF02EEF0CF06BEF0CF0B3
:101860005E80CD6DCE1FD8B0CE2B6BEF0CF08EC04E
:10187000D9FF8FC0DAFFDECF07F0DDCF08F0A4EC90
:1018800014F007C0CDF008C0CEF04EEF0CF08EC0C3
:10189000D9FF8FC0DAFFDE2A000EDD228EC0D9FF0D
:1018A0008FC0DAFFDECFF6FFDDCFF7FF0800F5CF00
:1018B00092F0D00E00019225936F946BFF0E94234B
:1018C000945109E10A0E935DD8A069EF0CF06BEF1B
:1018D0000CF047EF0CF08EC0D9FF8FC0DAFFDECFDF
:1018E000F6FFDDCFF7FF0800F5502E0AD8A47BEFF6
:1018F0000CF07DEF0CF0EBEF0CF0000ED06F000E53
:10190000CF6F8EC0D9FF8FC0DAFFDE2A000EDD2236
:101910008EC0D9FF8FC0DAFFDECFF6FFDDCFF7FF35
:101920000800F5502A0AD8A498EF0CF09AEF0CF0B2
:10193000B7EF0CF08EC0D9FF8FC0DAFFDE2A000EA1
:10194000DD2290C0D9FF91C0DAFFDFCF92F0020E06
:10195000DE26DFCF93F0000EDD2292C0D9FF93C0C8
:10196000DAFFDECFCFF0DDCFD0F0EBEF0CF08EC0A2
:10197000D9FF8FC0DAFFDECF07F0DDCF08F0A4EC8F
:1019800014F007C0CFF008C0D0F0CEEF0CF08EC03E
:10199000D9FF8FC0DAFFDE2A000EDD228EC0D9FF0C
:1019A0008FC0DAFFDECFF6FFDDCFF7FF0800F5CFFF
:1019B00092F0D00E00019225936F946BFF0E94234A
:1019C000945109E10A0E935DD8A0E9EF0CF0EBEF1A
:1019D0000CF0C7EF0CF08EC0D9FF8FC0DAFFDECF5E
:1019E000A0F0DDCFA1F0A0C0F6FFA1C0F7FF080076
:1019F000F5CF9FF008EF0DF0A04BA12B21EF0DF0DC
:101A00006C0E9F6F21EF0DF0000E9F6F21EF0DF018
:101A10009F51926F936B9351000AD8B412EF0DF05F
:101A200004EF0DF092514C0AD8B4FCEF0CF02A0AE6
:101A3000D8B400EF0DF00A0AD8B4FCEF0CF004EFB4
:101A40000DF0A0C0F6FFA1C0F7FF0800F550660A30
:101A5000D8A42DEF0DF02FEF0DF0B7EF0DF065EFDF
:101A60000DF090C0D9FF91C0DAFFDFCF92F0040EE5
:101A7000DE26DFCF93F0000EDD2292C0D9FF93C0A7
:101A8000DAFFDECF95F0DECF96F0DECF97F0DECF37
:101A900098F07AEF0DF090C0D9FF91C0DAFFDFCF58
:101AA00092F0040EDE26DFCF93F0000EDD2292C00E
:101AB000D9FF93C0DAFFDECF95F0DECF96F0DECF10
:101AC00097F0DECF98F07AEF0DF09F51926F936B05
:101AD0009351000AD8B46FEF0DF07AEF0DF09251E8
:101AE0004C0AD8B44BEF0DF0200AD8B431EF0DF00A
:101AF0007AEF0DF0010EA025926F000EA121936FD9
:101B00008EC0D9FF8FC0DAFF92C0DEFF93C0DDFF29
:101B1000A1EF0DF08CC055F08DC056F095C057F078
:101B200096C058F097C059F098C05AF0A0C0F6FF80
:101B3000A1C0F7FF0800F5CF5BF00FEC04F0D4EF85
:101B40000DF0A0C0F6FFA1C0F7FF0800F550926F9E
:101B5000936B9351000AD8B4B0EF0DF0B7EF0DF0CE
:101B60009251660AD8B48AEF0DF0B7EF0DF08EC02F
:101B7000D9FF8FC0DAFFDE2A000EDD22D4EF0DF090
:101B80008EC0D9FF8FC0DAFFDECFF6FFDDCFF7FFC3
:101B90000800F550016E026A8CC003F08DC004F09D
:101BA000CDEC16F0B7EF0DF012001250800B1B6E4B
:101BB00012501224216E11AEE0EF0DF0E2EF0DF0A5
:101BC000E3EF0DF021802150D8B4E9EF0DF0EBEFF9
:101BD0000DF0FEEF0DF02128D8A4F1EF0DF0F3EF9A
:101BE0000DF0FBEF0DF0000E0F6E000E106E000EEC
:101BF000116E000E126E118E06EF0EF0000E0F6EBB
:101C0000000E106E000E116E000E126E1650800B3C
:101C10001B1A16501624206E15AE11EF0EF013EF9E
:101C20000EF014EF0EF020802050D8B41AEF0EF012
:101C30001CEF0EF02FEF0EF02028D8A422EF0EF0AC
:101C400024EF0EF02CEF0EF0000E136E000E146E4B
:101C5000000E156E000E166E158E37EF0EF0000E8C
:101C6000136E000E146E000E156E000E166E2050D0
:101C7000D8B43DEF0EF03FEF0EF047EF0EF02150DD
:101C8000D8A445EF0EF047EF0EF051EF0EF0000E26
:101C90000F6E000E106E000E116E000E126EE9EF48
:101CA0000FF015500F02F3CF26F0F4CF27F0265097
:101CB0001C6E1D6A1E6A1F6A2750226E236A246AE0
:101CC000256A14501002F3CF26F0F4CF27F02650E7
:101CD0001C26000E1D221E221F2227502226000E27
:101CE00023222422252213501102F3CF26F0F4CF11
:101CF00027F026501C26000E1D221E221F222750D0
:101D00002226000E2322242225221EC01FF01DC0E1
:101D10001EF01CC01DF01C6A13501002F3CF26F0F9
:101D2000F4CF27F026501C2627501D22000E1E221D
:101D3000000E1F2214500F02F3CF26F0F4CF27F02D
:101D400026501C2627501D22000E1E22000E1F2288
:101D50001EC01FF01DC01EF01CC01DF01C6A1350D9
:101D60000F02F3CF26F0F4CF27F026501C26275081
:101D70001D22000E1E22000E1F2215501002F3CF4E
:101D800026F0F4CF27F02650222627502322000EDB
:101D90002422000E252214501102F3CF26F0F4CF96
:101DA00027F02650222627502322000E2422000E40
:101DB000252215501102F3CF26F0F4CF27F026503C
:101DC000176E2750186E196A1A6A19C01AF018C0CF
:101DD00019F017C018F0176A17502226185023223E
:101DE000195024221A5025221CC017F01DC018F0CB
:101DF0001EC019F01FC01AF0190E04EF0FF0D89092
:101E00001A32193218321732E82EFFEF0EF017503F
:101E1000222618502322195024221A5025221EC08F
:101E20001FF01DC01EF01CC01DF01C6A205021C0F8
:101E300017F0186A1726000E1822820E1724266E35
:101E4000FF0E1820276E3AEF0FF0D8902236233677
:101E5000243625361FAE2FEF0FF031EF0FF032EFA3
:101E60000FF02280D8901C361D361E361F362606EF
:101E7000D8A0270624AE3FEF0FF041EF0FF025EF7B
:101E80000FF0000E206E1FAE48EF0FF04AEF0FF07C
:101E90006EEF0FF0FF0E1C14176EFF0E1D14186E60
:101EA000FF0E1E14196E7F0E1F141A6E1750181095
:101EB00019101A10D8B45FEF0FF061EF0FF065EF53
:101EC0000FF0010E206E6EEF0FF022A06AEF0FF000
:101ED0006CEF0FF06EEF0FF061EF0FF02050D8B401
:101EE00074EF0FF076EF0FF09AEF0FF0010E22264D
:101EF000000E23222422252225A081EF0FF083EF5C
:101F00000FF09AEF0FF022C017F023C018F024C092
:101F100019F025C01AF01A341A3219321832173251
:101F200017C022F018C023F019C024F01AC025F001
:101F3000264A272A27BEA5EF0FF0275008E12628BA
:101F4000D8A0A5EF0FF0A7EF0FF0B1EF0FF0000E44
:101F5000226E000E236E800E246E7F0E256EDFEF44
:101F60000FF027BEBEEF0FF0275006E12604D8B0D1
:101F7000BCEF0FF0BEEF0FF0CAEF0FF0000E226EB5
:101F8000000E236E000E246E000E256E000E1B6EDA
:101F9000DFEF0FF026C021F0FF0E2216FF0E2316F2
:101FA0007F0E2416000E251621A0D9EF0FF0DBEFCF
:101FB0000FF0DCEF0FF0248ED8902130256E1B50EF
:101FC000251222C00FF023C010F024C011F025C04C
:101FD00012F012002B50800B386E2B502B243F6ECA
:101FE0002AAEF5EF0FF0F7EF0FF0F8EF0FF03F80AC
:101FF0003F50D8B4FEEF0FF000EF10F015EF10F0E7
:102000003F28D8A406EF10F008EF10F010EF10F002
:10201000000E286E000E296E000E2A6E000E2B6E2A
:102020002A8E000E2B6E1DEF10F0000E286E000E93
:10203000296E000E2A6E000E2B6E2F50800B381A60
:102040002F502F24406E2EAE28EF10F02AEF10F004
:102050002BEF10F040804050D8B431EF10F033EF48
:1020600010F048EF10F04028D8A439EF10F03BEF03
:1020700010F043EF10F0000E2C6E000E2D6E000ECF
:102080002E6E000E2F6E2E8E000E2F6E50EF10F063
:10209000000E2C6E000E2D6E000E2E6E000E2F6E9A
:1020A0002C502D102E102F10D8A459EF10F05BEFEC
:1020B00010F073EF10F0000E286E000E296E000E67
:1020C0002A6E000E2B6E800E2A127F0E2B123850B5
:1020D0002B1228C028F029C029F02AC02AF02BC0D2
:1020E0002BF0B6EF11F03F50D8A479EF10F07BEF52
:1020F00010F085EF10F0000E286E000E296E000E15
:102100002A6E000E2B6EB6EF11F040503FC030F03B
:10211000316A305E000E315A7F0E3024396E000E67
:1021200031203A6E28C034F029C035F02AC036F08C
:102130002BC037F0000E286E000E296E000E2A6E9E
:10214000000E2B6E000E3B6E000E3C6E000E3D6EC0
:10215000000E3E6E000E406EE6EF10F04050D8B418
:10216000B4EF10F0B6EF10F0CDEF10F0D890343699
:10217000353636363736D890283629362A362B3635
:102180003EAEC5EF10F0C7EF10F0C8EF10F028809A
:10219000D8903B363C363D363E362C50345C2D5084
:1021A00035582E5036582F503758D8A0DAEF10F047
:1021B000DCEF10F0E5EF10F03E8C2C50345E2D502B
:1021C000355A2E50365A2F50375A402A190E40642D
:1021D000ECEF10F0EEEF10F0AEEF10F034503510E1
:1021E00036103710D8B4F7EF10F0F9EF10F011EF08
:1021F00011F03B8011EF11F0D890283629362A369D
:102200002B363EAE06EF11F008EF11F009EF11F09A
:102210002880D8903B363C363D363E363906D8A02D
:102220003A062AAE16EF11F018EF11F0FCEF10F09D
:10223000000E406E3EAE1FEF11F021EF11F045EFA2
:1022400011F0FF0E3B14306EFF0E3C14316EFF0E8A
:102250003D14326E7F0E3E14336E3050311032100A
:102260003310D8B436EF11F038EF11F03CEF11F025
:10227000010E406E45EF11F028A041EF11F043EF41
:1022800011F045EF11F038EF11F04050D8B44BEF9A
:1022900011F04DEF11F071EF11F0010E2826000E34
:1022A00029222A222B222BA058EF11F05AEF11F0ED
:1022B00071EF11F028C030F029C031F02AC032F09F
:1022C0002BC033F03334333232323132303230C01B
:1022D00028F031C029F032C02AF033C02BF0394A3F
:1022E0003A2A3ABE7CEF11F03A5008E13928D8A0DA
:1022F0007CEF11F07EEF11F089EF11F0000E3A6ED5
:102300003968000E286E000E296E000E2A6E000E2F
:102310002B6E3ABE96EF11F03A5006E13904D8B070
:1023200094EF11F096EF11F0A4EF11F0000E3A6E59
:10233000000E396E000E286E000E296E000E2A6EF9
:10234000000E2B6E000E386E39C03FF03FA0ABEF91
:1023500011F0ADEF11F0B0EF11F02A8EB1EF11F0E6
:102360002A9ED8903F302B6E67EF10F0120091EC50
:102370001AF080EC1AF074EC1AF01BEC18F08AECEE
:102380001AF09AEC1AF096EC1AF0010E046E010E97
:102390008CEC18F0010E056E080E066EDCEC17F0E2
:1023A0000F0E8A6E8C80140EE82EFED78C9083A2BE
:1023B000DCEF11F0DEEF11F0D7EF11F0D58E83B224
:1023C000E4EF11F0E6EF11F0DFEF11F0D59ED6CF7C
:1023D000D1F0D7CFD2F0000ED76E000ED66E000E21
:1023E000136E000E146E000E156E400E166ED1C0E8
:1023F00001F0D2C002F0036A046A000ECAEC13F0C6
:1024000001C00FF002C010F003C011F004C012F0C0
:10241000D5EC0DF00FC028F010C029F011C02AF043
:1024200012C02BF0000E2C6E240E2D6E740E2E6E2C
:10243000490E2F6EEAEC0FF028C0E8F029C0E9F051
:102440002AC0EAF02BC0EBF0E8C028F0E9C029F080
:10245000EAC02AF0EBC02BF0000E2C6E000E2D6EA1
:10246000000E2E6E400E2F6EEAEC0FF028C0E8F042
:1024700029C0E9F02AC0EAF02BC0EBF0E8C00FF069
:10248000E9C010F0EAC011F0EBC012F0000E136EBC
:10249000D00E146E040E156E470E166ED5EC0DF0B0
:1024A0000FC0C9F010C0CAF011C0CBF012C0CCF000
:1024B000010E046E020E8CEC18F0D40E0001AA6F0F
:1024C000000EAB6F0D0EAC6F080EAD6FC9C0AEF055
:1024D000CAC0AFF0CBC0B0F0CCC0B1F0EDEC18F09A
:1024E000D40E056E000E066EDCEC17F0C9C028F0A5
:1024F000CAC029F0CBC02AF0CCC02BF0000E2C6E45
:10250000000E2D6E200E2E6E410E2F6ECCEC15F0AF
:10251000D8B08DEF12F08FEF12F0BAEF12F0010E7B
:102520000001D36FB1EF12F08A888A8A8A9C030E69
:102530000001C06F080EBF6F770EE82EFED7BF2FC9
:10254000FCD7C02FFAD78A9A8A8C030E0001C06F7D
:10255000080EBF6F770EE82EFED7BF2FFCD7C02F17
:10256000FAD70001D351D8A4B8EF12F0BAEF12F0A5
:1025700094EF12F08A988A9A8A9CD2EF11F019EFA0
:1025800000F0C1C051F0C2C052F0C3C053F0C4C08B
:1025900054F041C051F042C052F043C053F044C027
:1025A00054F0810E456EFF0E466E51C047F052C08A
:1025B00048F053C049F054C04AF0180EE5EF12F04D
:1025C000D8904A32493248324732E82EE0EF12F0D2
:1025D000475045244F6E000E4620506E50BEFAEF15
:1025E00012F0505009E1170E4F5CD8A0FAEF12F02C
:1025F000FCEF12F006EF13F041C041F042C042F090
:1026000043C043F044C044F0C9EF13F050BE0BEF99
:1026100013F00DEF13F07DEF13F04FC045F0FF0EF8
:10262000466EFF0E476E7F0E486E000E496E456681
:102630001CEF13F024EF13F049344932483247328B
:102640004632452E17EF13F046C04BF047C04CF012
:1026500048C04DF049C04EF04B505114456E4C509F
:102660005214466E4D505314476E4E505414486EDB
:102670004550461047104810D8A441EF13F043EFDF
:1026800013F045EF13F0FCEF12F051C045F052C0CB
:1026900046F053C047F054C048F0200E55EF13F0F9
:1026A000D8904832473246324532E82E50EF13F088
:1026B0004550461047104810D8B461EF13F063EF4F
:1026C00013F06BEF13F04B5051264C5052224D50EB
:1026D00053224E5054224B1C456E4C1C466E4D1CD2
:1026E000476E4E1C486E4550511646505216475084
:1026F000531648505416C1EF13F051C045F052C064
:1027000046F053C047F054C048F0200E8DEF13F050
:10271000D8904832473246324532E82E88EF13F0DF
:102720004550461047104810D8A499EF13F09BEF7E
:1027300013F0A5EF13F0000E516E000E526E000E56
:10274000536E000E546EC1EF13F0D8905134456EA5
:102750005234466E5334476E5434486E45504610DA
:1027600047104810D8B4B7EF13F0B9EF13F0C1EF2A
:1027700013F0000E516E000E526E800E536EBF0E9F
:10278000546E51C041F052C042F053C043F054C0A7
:1027900044F01200096E0950D8B4D1EF13F0D3EF12
:1027A00013F0F5EF13F004BEDAEF13F0D8EF13F0E7
:1027B000F5EF13F001C005F002C006F003C007F00A
:1027C00004C008F0051E061E071E081E052A000E7E
:1027D00006220722082205C00BF006C00CF007C035
:1027E0000DF008C00EF0FDEF13F001C00BF002C0B9
:1027F0000CF003C00DF004C00EF0015002100310E5
:102800000410D8A406EF14F008EF14F012EF14F03F
:10281000000E016E000E026E000E036E000E046EBE
:10282000A3EF14F0960E0A6E1CEF14F00A2AD8904B
:102830000E320D320C320B32000E0B14056E000EF0
:102840000C14066E000E0D14076EFE0E0E14086EAC
:102850000550061007100810D8A431EF14F033EF1C
:1028600014F016EF14F041EF14F00A2A010E0B26B3
:10287000000E0C220D220E22D8900E320D320C3298
:102880000B32000E0B14056E000E0C14066E000EBB
:102890000D14076EFF0E0E14086E0550061007107B
:1028A0000810D8A456EF14F058EF14F035EF14F0D8
:1028B00060EF14F00A06D8900B360C360D360E3643
:1028C0000DBE65EF14F067EF14F06FEF14F0020E19
:1028D0000A606DEF14F06FEF14F05AEF14F00AB0C5
:1028E00074EF14F076EF14F077EF14F00D9ED8909B
:1028F0000A320AC005F0066A076A086A05C008F0CD
:10290000076A066A056A05500B1206500C1207503A
:102910000D1208500E120950D8B491EF14F093EF35
:1029200014F09BEF14F004BE9AEF14F098EF14F03B
:102930009BEF14F00E8E0BC001F00CC002F00DC026
:1029400003F00EC004F01200000E0F6E000E0E6EAB
:10295000000E0D6E000E0C6EB0EF14F0074A082A40
:1029600007C0F6FF08C0F7FF0800F550200AD8B4EA
:10297000BCEF14F0BEEF14F0AEEF14F007C0F6FF9A
:1029800008C0F7FF0800F5CF09F0F70E09240A6E1A
:102990000B6AFF0E0B220B5009E1050E0A5CD8A052
:1029A000D4EF14F0D6EF14F0AEEF14F0E0EF14F023
:1029B000000E0D6E010E0C6E074A082A15EF15F079
:1029C00007C0F6FF08C0F7FF0800F550096E0A6A55
:1029D0000A50000AD8B4EFEF14F015EF15F00950C3
:1029E0002B0AD8B4DCEF14F0060AD8B4D8EF14F0F0
:1029F00015EF15F00EC001F00FC002F0000E046ECE
:102A00000A0E036E51EC1AF007C0F6FF08C0F7FF7C
:102A10000800F550015E000E025A300E01240E6EC1
:102A2000000E02200F6EDCEF14F007C0F6FF08C0A6
:102A3000F7FF0800F5CF09F0D00E09240A6E0B6AE3
:102A4000FF0E0B220B5009E10A0E0A5CD8A02BEFF7
:102A500015F02DEF15F0FAEF14F00C500D10D8A46E
:102A600034EF15F036EF15F044EF15F00EC009F015
:102A70000FC00AF0091E0A1E094A0A2A09C007F0F7
:102A80000AC008F048EF15F00EC007F00FC008F0BC
:102A90001200033404340A6E0A50D8A452EF15F021
:102AA00054EF15F05EEF15F0000E016E000E026E91
:102AB000000E036E000E046ECBEF15F001C005F0A2
:102AC00002C006F003C007F004C008F0200E6EEF4D
:102AD00015F0D8900832073206320532E82E69EF39
:102AE00015F00550096E038EFF0E0116FF0E02163B
:102AF000FF0E0316000E0416960E0A5E0ABE85EF40
:102B000015F083EF15F09BEF15F00A50800A970F30
:102B1000D8B08DEF15F08FEF15F091EF15F054EF61
:102B200015F0D89004320332023201320A3E91EF9E
:102B300015F0B3EF15F01F0E0A64A1EF15F0A3EF27
:102B400015F0ABEF15F054EF15F0D89001360236C2
:102B5000033604360A060A50D8A4B1EF15F0B3EFD5
:102B600015F0A5EF15F00950D8B4B9EF15F0BBEF8B
:102B700015F0C3EF15F0041E031E021E016C000EBB
:102B800002220322042201C001F002C002F003C0AD
:102B900003F004C004F01200000E2814306E000E82
:102BA0002914316E800E2A14326E7F0E2B14336E70
:102BB0003050311032103310D8A4E1EF15F0E3EFAC
:102BC00015F0EBEF15F0000E286E000E296E000ECA
:102BD0002A6E000E2B6E000E2C14306E000E2D147B
:102BE000316E800E2E14326E7F0E2F14336E3050E5
:102BF000311032103310D8A400EF16F002EF16F0A7
:102C00000AEF16F0000E2C6E000E2D6E000E2E6ECA
:102C1000000E2F6E2BAE0FEF16F011EF16F01AEF1D
:102C200016F0286C291ED8B0292A2A1ED8B02A2AC4
:102C3000800E2B562FAE1FEF16F021EF16F02AEF65
:102C400016F02C6C2D1ED8B02D2A2E1ED8B02E2A90
:102C5000800E2F56000E281A000E291A000E2A1A6E
:102C6000800E2B1A000E2C1A000E2D1A000E2E1A92
:102C7000800E2F1A2C50285C2D5029582E502A587F
:102C80002F502B58D8B047EF16F049EF16F04CEF05
:102C900016F0D8904DEF16F0D8801200C5C00BF09A
:102CA000C6C00CF0C7C00DF0C8C00EF001C00BF0DC
:102CB00002C00CF003C00DF004C00EF00BC005F014
:102CC0000CC006F00DC007F00EC008F0180E6EEF35
:102CD00016F0D8900832073206320532E82E69EF36
:102CE00016F00550096E0A6A09500A10D8A47BEF45
:102CF00016F07DEF16F09DEF16F0D8900B34056EB0
:102D00000C34066E0D34076E0E34086E0550061036
:102D100007100810D8A48FEF16F091EF16F097EF78
:102D200016F0000E026E020E016ECCEF16F0000ED1
:102D3000026E030E016ECCEF16F009280A10D8A41B
:102D4000A4EF16F0A6EF16F0C8EF16F00BC005F0D2
:102D50000CC006F00DC007F00EC008F0090ED890A8
:102D60000536063607360836E82EAFEF16F0055062
:102D7000061007100810D8B4C0EF16F0C3EF16F015
:102D8000010EC4EF16F0000E016E026ACCEF16F0D1
:102D9000000E026E040E016E120003500410D8B42F
:102DA000D4EF16F0D6EF16F0DFEF16F00350041054
:102DB000D8A4DDEF16F0DFEF16F0E4EF16F00150C7
:102DC0009DEC1AF031EF17F020EE09F00350D926F0
:102DD0000450DA22DE50DE10D8B4F1EF16F0F3EF33
:102DE00016F00EEF17F020EE09F00350D92604502C
:102DF000DA2210EE03F00350E1260450E222DE5006
:102E0000E65CE650800A096EDE50800A0958D8B0A8
:102E10000CEF17F00EEF17F031EF17F020EE03F084
:102E20000350D9260450DA22DECF05F0DDCF06F0BC
:102E300003C0D9FF04C0DAFFDECF07F0DDCF08F012
:102E400005500724D96E06500820DA6E01C0DFFF56
:102E500020EE03F00350D9260450DA22DE2A000EB9
:102E6000DD2212005EA037EF17F039EF17F043EFC5
:102E700017F013C00AF014C00BF011C00CF012C010
:102E80000DF0ADEC19F016BE48EF17F04AEF17F051
:102E900050EF17F015C01AF016C01BF054EF17F0E2
:102EA000000E1B6E000E1A6E000E196E000E186ECC
:102EB00066EF17F0000E026E200E016E11C003F0D7
:102EC00012C004F0CDEC16F0184A192A1A50185CFA
:102ED0001950800A176E1B50800A1758D8A073EF3C
:102EE00017F075EF17F05AEF17F05EB07AEF17F0A2
:102EF0007CEF17F086EF17F013C00AF014C00BF048
:102F000011C00CF012C00DF0ADEC19F01200000E63
:102F10000114096E000E02140A6E800E03140B6E6B
:102F20007F0E04140C6E09500A100B100C10D8A45C
:102F30009CEF17F09EEF17F0A6EF17F0000E016E52
:102F4000000E026E000E036E000E046E000E0514DD
:102F5000096E000E06140A6E800E07140B6E7F0EAB
:102F600008140C6E09500A100B100C10D8A4BBEFFB
:102F700017F0BDEF17F0C5EF17F0000E056E000E4D
:102F8000066E000E076E000E086E055001180FE168
:102F9000065002180CE10750031809E10850041804
:102FA000D8B4D5EF17F0D7EF17F0DAEF17F0D890C5
:102FB000DBEF17F0D8801200000E0A6E000E096ECB
:102FC000FCEF17F009500524076E0A500620086E22
:102FD00007C0F6FF08C0F7FFF86A070EF76403D0D2
:102FE0000800F55005D0F6CFE1FFF7CFE2FFE7503C
:102FF0000BEC1AF0094A0A2A09500524076E0A50F8
:103000000620086E07C0F6FF08C0F7FFF86A070E33
:10301000F76403D00800F55005D0F6CFE1FFF7CFF5
:10302000E2FFE7500009D8A418EF18F01AEF18F0E3
:10303000E2EF17F012000F0E9516F30E9516000E24
:10304000BFEC18F0680E046EE40EE82EFED7042ED6
:10305000FCD700D0030E64EC1AF01A0E046EF80EC2
:10306000E82EFED7042EFCD700D0030E64EC1AF035
:103070003A0E046E230EE82EFED7042EFCD700F085
:10308000030E64EC1AF0020E64EC1AF0020E64EC0B
:103090001AF0080E64EC1AF0000E64EC1AF00C0E34
:1030A00064EC1AF0000E64EC1AF0060E64EC1AF0F0
:1030B000120004BE68EF18F004500310021006E17D
:1030C0000104D8B066EF18F068EF18F083EF18F03D
:1030D00001C005F002C006F003C007F004C008F00C
:1030E000051E061E071E081E052A000E06220722C0
:1030F000082205C001F006C002F007C003F008C0B6
:1031000004F08BEF18F001C001F002C002F003C020
:1031100003F004C004F01200056E0504D8A493EF78
:1031200018F095EF18F0A6EF18F004507F0F086E16
:1031300008380F0B066E08500F0B076E065064EC34
:103140001AF0075064EC1AF0BEEF18F0020E0518E2
:10315000D8A4ADEF18F0AFEF18F0BEEF18F00450A0
:10316000BF0F086E08380F0B066E08500F0B076E66
:10317000065064EC1AF0075064EC1AF01200016E6D
:1031800001A0C5EF18F0C7EF18F0CAEF18F08C884F
:10319000CBEF18F08C9801A2D0EF18F0D2EF18F016
:1031A000D5EF18F08C8AD6EF18F08C9A01A4DBEFDB
:1031B00018F0DDEF18F0E0EF18F08C8CE1EF18F06C
:1031C0008C9C01A6E6EF18F0E8EF18F0EBEF18F092
:1031D0008C8EECEF18F08C9E1200AE0E0001B26FD8
:1031E000000EB36FAAC0B4F0ABC0B5F0000EB86F5C
:1031F000000EB76F000EBE6F000EBD6FB40EA26F53
:10320000000EA36FACC0A4F0ADC0A5F0B20EA66FC7
:10321000000EA76F16EC19F00001B751AA25D96E60
:10322000B851AB21DA6E000EDF6E1200A4C0A8F018
:10323000A5C0A9F02BEF19F0A2C08CF0A3C08DF0AF
:10324000A80E00018E6F000E8F6FA6C090F0A7C071
:1032500091F0A1EC0BF0A8C0F6FFA9C0F7FF0800A1
:10326000F5500009D8A437EF19F039EF19F01CEF29
:1032700019F0000E0001A36F000EA26F120003C030
:1032800009F004C00AF001C007F002C008F059EFCD
:1032900019F009C0D9FF0AC0DAFFDF500B6E094AE6
:1032A0000A2A07C0D9FF08C0DAFF0BC0DFFF074AB0
:1032B000082A0506D8A00606052806E10628D8A48F
:1032C00064EF19F066EF19F049EF19F01200000EE3
:1032D0002C1A000E2D1A000E2E1A800E2F1A28C03E
:1032E00001F029C002F02AC003F02BC004F02CC06A
:1032F00005F02DC006F02EC007F02FC008F041ECFD
:1033000009F001C028F002C029F003C02AF004C06F
:103310002BF01200010E056E200E01180210D8B419
:1033200094EF19F096EF19F0A9EF19F0F70E0124B8
:10333000036EFF0E0220046E045009E1050E035CCB
:10334000D8A0A5EF19F0A7EF19F0A9EF19F0000E1A
:10335000056E05C001F0026A1200000E106E000E2C
:103360000F6EBEEF19F00EC001F0026A0CC003F040
:103370000DC004F0CDEC16F00F4A102A0F500A24AD
:10338000D96E10500B20DA6EDF500E6E0E50D8A49E
:10339000CCEF19F0CEEF19F0B3EF19F0120003C023
:1033A00005F004C006F001C007F002C008F005C037
:1033B000F6FF06C0F7FF054A062A07C0D9FF08C076
:1033C000DAFF074A082A0800F5CFDFFFDF50D8A44C
:1033D000ECEF19F0EEEF19F0D7EF19F012000150F1
:1033E000021003100410D8B4F8EF19F0FAEF19F036
:1033F00002EF1AF0000E011A000E021A000E031A54
:10340000800E041A01C001F002C002F003C003F0F4
:1034100004C004F01200046E04500F0B026E04503E
:10342000F00B036E8C8403380F0BBFEC18F08C8606
:10343000350EE82EFED700F08C960250BFEC18F047
:103440008C86350EE82EFED700F08C961200D00E3A
:103450000124036EFF0E0220046E04500AE10A0EDE
:10346000035CD8A036EF1AF039EF1AF0010E3AEFEC
:103470001AF0000E016E026A120001EE00F0500E0A
:10348000EE6AE806FDE100EEC1F02B0EEE6AE806FA
:10349000FDE15E6A5F905F92000EF86E0001B7EF8B
:1034A00011F001500302F3CF05F0F4CF06F0015004
:1034B0000402F350062602500302F350062605C00C
:1034C00001F006C002F01200036E8C940350BFECB2
:1034D00018F08C86150E026EC60EE82EFED7022E50
:1034E000FCD700D08C961200D59CD59AD596D55095
:1034F000F80B0209D56E000ED76E000ED66E1200C4
:10350000000E0F015E6F020E956E000E5C6F0F0EC7
:10351000936E1200000E64EC1AF0010E64EC1AF0C7
:103520001200700ED312D390D3821200F288F2925E
:0C353000F19C1200D09EF28E12001200DE
:020000040020DA
:08000000FFFFFFFFFFFFFFFF00
:020000040030CA
:0E00000000285E3CFFD385FF0FC00FE00F40CD
:00000001FF
